{
  "contractName": "RubyCash",
  "abi": [
    {
      "inputs": [
        {
          "internalType": "address",
          "name": "_feeWallet",
          "type": "address"
        }
      ],
      "payable": false,
      "stateMutability": "nonpayable",
      "type": "constructor"
    },
    {
      "anonymous": false,
      "inputs": [
        {
          "indexed": true,
          "internalType": "address",
          "name": "_user",
          "type": "address"
        },
        {
          "indexed": false,
          "internalType": "uint256",
          "name": "_level",
          "type": "uint256"
        },
        {
          "indexed": false,
          "internalType": "uint256",
          "name": "_time",
          "type": "uint256"
        }
      ],
      "name": "buyPackageEvent",
      "type": "event"
    },
    {
      "anonymous": false,
      "inputs": [
        {
          "indexed": true,
          "internalType": "address",
          "name": "_sender",
          "type": "address"
        },
        {
          "indexed": false,
          "internalType": "uint256",
          "name": "_amount",
          "type": "uint256"
        }
      ],
      "name": "receivedEtherEvent",
      "type": "event"
    },
    {
      "anonymous": false,
      "inputs": [
        {
          "indexed": true,
          "internalType": "address",
          "name": "_user",
          "type": "address"
        },
        {
          "indexed": true,
          "internalType": "address",
          "name": "_referrer",
          "type": "address"
        },
        {
          "indexed": false,
          "internalType": "uint256",
          "name": "_time",
          "type": "uint256"
        }
      ],
      "name": "regEvent",
      "type": "event"
    },
    {
      "payable": true,
      "stateMutability": "payable",
      "type": "fallback"
    },
    {
      "constant": true,
      "inputs": [
        {
          "internalType": "uint256",
          "name": "",
          "type": "uint256"
        }
      ],
      "name": "FEE",
      "outputs": [
        {
          "internalType": "uint256",
          "name": "",
          "type": "uint256"
        }
      ],
      "payable": false,
      "stateMutability": "view",
      "type": "function"
    },
    {
      "constant": true,
      "inputs": [
        {
          "internalType": "uint256",
          "name": "",
          "type": "uint256"
        }
      ],
      "name": "PACKAGE_PRICE",
      "outputs": [
        {
          "internalType": "uint256",
          "name": "",
          "type": "uint256"
        }
      ],
      "payable": false,
      "stateMutability": "view",
      "type": "function"
    },
    {
      "constant": true,
      "inputs": [
        {
          "internalType": "uint256",
          "name": "",
          "type": "uint256"
        }
      ],
      "name": "PAYOUT",
      "outputs": [
        {
          "internalType": "uint256",
          "name": "",
          "type": "uint256"
        }
      ],
      "payable": false,
      "stateMutability": "view",
      "type": "function"
    },
    {
      "constant": true,
      "inputs": [
        {
          "internalType": "uint256",
          "name": "",
          "type": "uint256"
        }
      ],
      "name": "REF_FEE",
      "outputs": [
        {
          "internalType": "uint256",
          "name": "",
          "type": "uint256"
        }
      ],
      "payable": false,
      "stateMutability": "view",
      "type": "function"
    },
    {
      "constant": true,
      "inputs": [],
      "name": "currUserID",
      "outputs": [
        {
          "internalType": "uint256",
          "name": "",
          "type": "uint256"
        }
      ],
      "payable": false,
      "stateMutability": "view",
      "type": "function"
    },
    {
      "constant": true,
      "inputs": [],
      "name": "feeWallet",
      "outputs": [
        {
          "internalType": "address",
          "name": "",
          "type": "address"
        }
      ],
      "payable": false,
      "stateMutability": "view",
      "type": "function"
    },
    {
      "constant": true,
      "inputs": [],
      "name": "increment",
      "outputs": [
        {
          "internalType": "uint256",
          "name": "",
          "type": "uint256"
        }
      ],
      "payable": false,
      "stateMutability": "view",
      "type": "function"
    },
    {
      "constant": true,
      "inputs": [],
      "name": "ownerWallet",
      "outputs": [
        {
          "internalType": "address",
          "name": "",
          "type": "address"
        }
      ],
      "payable": false,
      "stateMutability": "view",
      "type": "function"
    },
    {
      "constant": true,
      "inputs": [],
      "name": "packageID",
      "outputs": [
        {
          "internalType": "uint256",
          "name": "",
          "type": "uint256"
        }
      ],
      "payable": false,
      "stateMutability": "view",
      "type": "function"
    },
    {
      "constant": true,
      "inputs": [
        {
          "internalType": "uint256",
          "name": "",
          "type": "uint256"
        }
      ],
      "name": "packages",
      "outputs": [
        {
          "internalType": "uint256",
          "name": "level",
          "type": "uint256"
        },
        {
          "internalType": "uint256",
          "name": "amount",
          "type": "uint256"
        },
        {
          "internalType": "uint256",
          "name": "userID",
          "type": "uint256"
        },
        {
          "internalType": "uint256",
          "name": "remSlot",
          "type": "uint256"
        },
        {
          "internalType": "bool",
          "name": "isFulfiled",
          "type": "bool"
        },
        {
          "internalType": "address",
          "name": "wallet",
          "type": "address"
        },
        {
          "internalType": "bool",
          "name": "swirled",
          "type": "bool"
        }
      ],
      "payable": false,
      "stateMutability": "view",
      "type": "function"
    },
    {
      "constant": true,
      "inputs": [
        {
          "internalType": "uint256",
          "name": "",
          "type": "uint256"
        }
      ],
      "name": "userList",
      "outputs": [
        {
          "internalType": "address",
          "name": "",
          "type": "address"
        }
      ],
      "payable": false,
      "stateMutability": "view",
      "type": "function"
    },
    {
      "constant": true,
      "inputs": [
        {
          "internalType": "address",
          "name": "",
          "type": "address"
        }
      ],
      "name": "users",
      "outputs": [
        {
          "internalType": "address",
          "name": "wallet",
          "type": "address"
        },
        {
          "internalType": "bool",
          "name": "isExist",
          "type": "bool"
        },
        {
          "internalType": "uint256",
          "name": "id",
          "type": "uint256"
        },
        {
          "internalType": "uint256",
          "name": "referrerID",
          "type": "uint256"
        },
        {
          "internalType": "uint256",
          "name": "totEarned",
          "type": "uint256"
        },
        {
          "internalType": "uint256",
          "name": "bonusEarned",
          "type": "uint256"
        },
        {
          "internalType": "uint256",
          "name": "balance",
          "type": "uint256"
        }
      ],
      "payable": false,
      "stateMutability": "view",
      "type": "function"
    },
    {
      "constant": false,
      "inputs": [
        {
          "internalType": "uint256",
          "name": "_referrerID",
          "type": "uint256"
        }
      ],
      "name": "regUser",
      "outputs": [],
      "payable": true,
      "stateMutability": "payable",
      "type": "function"
    },
    {
      "constant": true,
      "inputs": [
        {
          "internalType": "address",
          "name": "_user",
          "type": "address"
        }
      ],
      "name": "isUserExist",
      "outputs": [
        {
          "internalType": "bool",
          "name": "",
          "type": "bool"
        }
      ],
      "payable": false,
      "stateMutability": "view",
      "type": "function"
    },
    {
      "constant": false,
      "inputs": [
        {
          "internalType": "uint256",
          "name": "_level",
          "type": "uint256"
        }
      ],
      "name": "buyNewPackage",
      "outputs": [],
      "payable": true,
      "stateMutability": "payable",
      "type": "function"
    },
    {
      "constant": true,
      "inputs": [
        {
          "internalType": "uint256",
          "name": "_level",
          "type": "uint256"
        },
        {
          "internalType": "address",
          "name": "_caller",
          "type": "address"
        },
        {
          "internalType": "bool",
          "name": "_swirled",
          "type": "bool"
        }
      ],
      "name": "findNextEarner",
      "outputs": [
        {
          "internalType": "uint256",
          "name": "",
          "type": "uint256"
        }
      ],
      "payable": false,
      "stateMutability": "view",
      "type": "function"
    },
    {
      "constant": false,
      "inputs": [
        {
          "internalType": "uint256",
          "name": "_userID",
          "type": "uint256"
        },
        {
          "internalType": "uint256",
          "name": "_level",
          "type": "uint256"
        }
      ],
      "name": "swirl",
      "outputs": [],
      "payable": true,
      "stateMutability": "payable",
      "type": "function"
    }
  ],
  "bytecode": "0x6080604052600060075560006008556040518060a001604052806601c6bf5263400067ffffffffffffffff1681526020016611c37937e0800067ffffffffffffffff16815260200166b1a2bc2ec5000067ffffffffffffffff1681526020016706f05b59d3b2000067ffffffffffffffff168152602001674563918244f4000067ffffffffffffffff1681525060099060056200009e92919062000776565b506040518060a00160405280660110d9316ec00067ffffffffffffffff168152602001660aa87bee53800067ffffffffffffffff168152602001666a94d74f43000067ffffffffffffffff168152602001670429d069189e000067ffffffffffffffff1681526020016729a2241af62c000067ffffffffffffffff16815250600a9060056200012f92919062000776565b503480156200013d57600080fd5b5060405162002b9238038062002b92833981810160405260208110156200016357600080fd5b8101908080519060200190929190505050336000806101000a81548173ffffffffffffffffffffffffffffffffffffffff021916908373ffffffffffffffffffffffffffffffffffffffff16021790555080600160006101000a81548173ffffffffffffffffffffffffffffffffffffffff021916908373ffffffffffffffffffffffffffffffffffffffff160217905550662386f26fc1000060026000600181526020019081526020016000208190555067016345785d8a0000600260006002815260200190815260200160002081905550670de0b6b3a7640000600260006003815260200190815260200160002081905550678ac7230489e8000060026000600481526020019081526020016000208190555068056bc75e2d63100000600260006005815260200190815260200160002081905550661ff973cafa800060036000600181526020019081526020016000208190555067013fbe85edc90000600360006002815260200190815260200160002081905550670c7d713b49da0000600360006003815260200190815260200160002081905550677ce66c50e28400006003600060048152602001908152602001600020819055506804e1003b28d928000060036000600581526020019081526020016000208190555062000349620007d4565b6007600081548092919060010191905055506040518060e001604052803373ffffffffffffffffffffffffffffffffffffffff16815260200160011515815260200160075481526020016000815260200160008152602001600081526020016000815250905080600460008060009054906101000a900473ffffffffffffffffffffffffffffffffffffffff1673ffffffffffffffffffffffffffffffffffffffff1673ffffffffffffffffffffffffffffffffffffffff16815260200190815260200160002060008201518160000160006101000a81548173ffffffffffffffffffffffffffffffffffffffff021916908373ffffffffffffffffffffffffffffffffffffffff16021790555060208201518160000160146101000a81548160ff02191690831515021790555060408201518160010155606082015181600201556080820151816003015560a0820151816004015560c082015181600501559050506000809054906101000a900473ffffffffffffffffffffffffffffffffffffffff1660066000600754815260200190815260200160002060006101000a81548173ffffffffffffffffffffffffffffffffffffffff021916908373ffffffffffffffffffffffffffffffffffffffff1602179055506000600190505b600581116200076d576200053b62000829565b6040518060e00160405280838152602001600260008581526020019081526020016000205481526020016007548152602001600281526020016000151581526020013373ffffffffffffffffffffffffffffffffffffffff168152602001600115158152509050600860008154809291906001019190505550806005600060085481526020019081526020016000206000820151816000015560208201518160010155604082015181600201556060820151816003015560808201518160040160006101000a81548160ff02191690831515021790555060a08201518160040160016101000a81548173ffffffffffffffffffffffffffffffffffffffff021916908373ffffffffffffffffffffffffffffffffffffffff16021790555060c08201518160040160156101000a81548160ff02191690831515021790555090505060028060008481526020019081526020016000205402600460008060009054906101000a900473ffffffffffffffffffffffffffffffffffffffff1673ffffffffffffffffffffffffffffffffffffffff1673ffffffffffffffffffffffffffffffffffffffff1681526020019081526020016000206005015401600460008060009054906101000a900473ffffffffffffffffffffffffffffffffffffffff1673ffffffffffffffffffffffffffffffffffffffff1673ffffffffffffffffffffffffffffffffffffffff1681526020019081526020016000206005018190555050808060010191505062000528565b505050620008a8565b828054828255906000526020600020908101928215620007c1579160200282015b82811115620007c0578251829067ffffffffffffffff1690559160200191906001019062000797565b5b509050620007d0919062000880565b5090565b6040518060e00160405280600073ffffffffffffffffffffffffffffffffffffffff16815260200160001515815260200160008152602001600081526020016000815260200160008152602001600081525090565b6040518060e0016040528060008152602001600081526020016000815260200160008152602001600015158152602001600073ffffffffffffffffffffffffffffffffffffffff1681526020016000151581525090565b620008a591905b80821115620008a157600081600090555060010162000887565b5090565b90565b6122da80620008b86000396000f3fe6080604052600436106100fe5760003560e01c80638853b53e11610095578063a87430ba11610064578063a87430ba146104db578063c216212a1461059a578063c3cf355a14610647578063d09de08a14610696578063f25f4b56146106c1576100fe565b80638853b53e146103b05780639335dcb7146103de5780639f4216e814610435578063a4bb170d146104b0576100fe565b806320205b9a116100d157806320205b9a1461026c57806324a72d4e1461029757806329c16bfc146103125780634178b31314610361576100fe565b80630255fa1e1461014e578063074fc591146101b75780631320f0b6146101e557806315baef461461021d575b3373ffffffffffffffffffffffffffffffffffffffff167fa7e278f77df2ab90639c3f687eeb9726dd0dc85185c468d72a0ba919f0878da4346040518082815260200191505060405180910390a2005b34801561015a57600080fd5b5061019d6004803603602081101561017157600080fd5b81019080803573ffffffffffffffffffffffffffffffffffffffff169060200190929190505050610718565b604051808215151515815260200191505060405180910390f35b6101e3600480360360208110156101cd57600080fd5b8101908080359060200190929190505050610786565b005b61021b600480360360408110156101fb57600080fd5b810190808035906020019092919080359060200190929190505050610bd4565b005b34801561022957600080fd5b506102566004803603602081101561024057600080fd5b8101908080359060200190929190505050610f9f565b6040518082815260200191505060405180910390f35b34801561027857600080fd5b50610281610fb7565b6040518082815260200191505060405180910390f35b3480156102a357600080fd5b506102fc600480360360608110156102ba57600080fd5b8101908080359060200190929190803573ffffffffffffffffffffffffffffffffffffffff169060200190929190803515159060200190929190505050610fbd565b6040518082815260200191505060405180910390f35b34801561031e57600080fd5b5061034b6004803603602081101561033557600080fd5b8101908080359060200190929190505050611158565b6040518082815260200191505060405180910390f35b34801561036d57600080fd5b5061039a6004803603602081101561038457600080fd5b8101908080359060200190929190505050611179565b6040518082815260200191505060405180910390f35b6103dc600480360360208110156103c657600080fd5b8101908080359060200190929190505050611191565b005b3480156103ea57600080fd5b506103f36119b9565b604051808273ffffffffffffffffffffffffffffffffffffffff1673ffffffffffffffffffffffffffffffffffffffff16815260200191505060405180910390f35b34801561044157600080fd5b5061046e6004803603602081101561045857600080fd5b81019080803590602001909291905050506119de565b604051808273ffffffffffffffffffffffffffffffffffffffff1673ffffffffffffffffffffffffffffffffffffffff16815260200191505060405180910390f35b3480156104bc57600080fd5b506104c5611a11565b6040518082815260200191505060405180910390f35b3480156104e757600080fd5b5061052a600480360360208110156104fe57600080fd5b81019080803573ffffffffffffffffffffffffffffffffffffffff169060200190929190505050611a17565b604051808873ffffffffffffffffffffffffffffffffffffffff1673ffffffffffffffffffffffffffffffffffffffff1681526020018715151515815260200186815260200185815260200184815260200183815260200182815260200197505050505050505060405180910390f35b3480156105a657600080fd5b506105d3600480360360208110156105bd57600080fd5b8101908080359060200190929190505050611a86565b60405180888152602001878152602001868152602001858152602001841515151581526020018373ffffffffffffffffffffffffffffffffffffffff1673ffffffffffffffffffffffffffffffffffffffff1681526020018215151515815260200197505050505050505060405180910390f35b34801561065357600080fd5b506106806004803603602081101561066a57600080fd5b8101908080359060200190929190505050611b02565b6040518082815260200191505060405180910390f35b3480156106a257600080fd5b506106ab611b23565b6040518082815260200191505060405180910390f35b3480156106cd57600080fd5b506106d6611b29565b604051808273ffffffffffffffffffffffffffffffffffffffff1673ffffffffffffffffffffffffffffffffffffffff16815260200191505060405180910390f35b600060011515600460008473ffffffffffffffffffffffffffffffffffffffff1673ffffffffffffffffffffffffffffffffffffffff16815260200190815260200160002060000160149054906101000a900460ff1615151461077c57600061077f565b60015b9050919050565b600460003373ffffffffffffffffffffffffffffffffffffffff1673ffffffffffffffffffffffffffffffffffffffff16815260200190815260200160002060000160149054906101000a900460ff16610848576040517f08c379a000000000000000000000000000000000000000000000000000000000815260040180806020018281038252600e8152602001807f55736572206e6f7420657869737400000000000000000000000000000000000081525060200191505060405180910390fd5b600081118015610859575060058111155b6108cb576040517f08c379a000000000000000000000000000000000000000000000000000000000815260040180806020018281038252600f8152602001807f496e636f7272656374206c6576656c000000000000000000000000000000000081525060200191505060405180910390fd5b60026000828152602001908152602001600020543414610953576040517f08c379a000000000000000000000000000000000000000000000000000000000815260040180806020018281038252600f8152602001807f496e636f72726563742056616c7565000000000000000000000000000000000081525060200191505060405180910390fd5b61095d8133611b4f565b6008600081548092919060010191905055506040518060e0016040528082815260200160026000848152602001908152602001600020548152602001600460003373ffffffffffffffffffffffffffffffffffffffff1673ffffffffffffffffffffffffffffffffffffffff168152602001908152602001600020600101548152602001600281526020016000151581526020013373ffffffffffffffffffffffffffffffffffffffff168152602001600015158152506005600060085481526020019081526020016000206000820151816000015560208201518160010155604082015181600201556060820151816003015560808201518160040160006101000a81548160ff02191690831515021790555060a08201518160040160016101000a81548173ffffffffffffffffffffffffffffffffffffffff021916908373ffffffffffffffffffffffffffffffffffffffff16021790555060c08201518160040160156101000a81548160ff02191690831515021790555090505060028060008381526020019081526020016000205402600460003373ffffffffffffffffffffffffffffffffffffffff1673ffffffffffffffffffffffffffffffffffffffff1681526020019081526020016000206005015401600460003373ffffffffffffffffffffffffffffffffffffffff1673ffffffffffffffffffffffffffffffffffffffff168152602001908152602001600020600501819055503373ffffffffffffffffffffffffffffffffffffffff167fe8b7aff258c5407f943f041cebe81aa0e3aa47e42e969573f65d0af7d30c2e308242604051808381526020018281526020019250505060405180910390a250565b6000809054906101000a900473ffffffffffffffffffffffffffffffffffffffff1673ffffffffffffffffffffffffffffffffffffffff163373ffffffffffffffffffffffffffffffffffffffff1614610c96576040517f08c379a000000000000000000000000000000000000000000000000000000000815260040180806020018281038252601c8152602001807f4f6e6c79206f776e65722063616e2063616c6c2066756e6374696f6e0000000081525060200191505060405180910390fd5b600082118015610ca857506007548211155b610d1a576040517f08c379a000000000000000000000000000000000000000000000000000000000815260040180806020018281038252600d8152602001807f4e6f207573657220666f756e640000000000000000000000000000000000000081525060200191505060405180910390fd5b610d226121f9565b6040518060e0016040528083815260200160026000858152602001908152602001600020548152602001848152602001600281526020016000151581526020016006600086815260200190815260200160002060009054906101000a900473ffffffffffffffffffffffffffffffffffffffff1673ffffffffffffffffffffffffffffffffffffffff168152602001600115158152509050600860008154809291906001019190505550806005600060085481526020019081526020016000206000820151816000015560208201518160010155604082015181600201556060820151816003015560808201518160040160006101000a81548160ff02191690831515021790555060a08201518160040160016101000a81548173ffffffffffffffffffffffffffffffffffffffff021916908373ffffffffffffffffffffffffffffffffffffffff16021790555060c08201518160040160156101000a81548160ff02191690831515021790555090505060028060008481526020019081526020016000205402600460006006600087815260200190815260200160002060009054906101000a900473ffffffffffffffffffffffffffffffffffffffff1673ffffffffffffffffffffffffffffffffffffffff1673ffffffffffffffffffffffffffffffffffffffff1681526020019081526020016000206005015401600460006006600087815260200190815260200160002060009054906101000a900473ffffffffffffffffffffffffffffffffffffffff1673ffffffffffffffffffffffffffffffffffffffff1673ffffffffffffffffffffffffffffffffffffffff16815260200190815260200160002060050181905550505050565b60036020528060005260406000206000915090505481565b60085481565b60008060008090506000600190505b600854811161114b57610fdd6121f9565b600560008381526020019081526020016000206040518060e0016040529081600082015481526020016001820154815260200160028201548152602001600382015481526020016004820160009054906101000a900460ff161515151581526020016004820160019054906101000a900473ffffffffffffffffffffffffffffffffffffffff1673ffffffffffffffffffffffffffffffffffffffff1673ffffffffffffffffffffffffffffffffffffffff1681526020016004820160159054906101000a900460ff1615151515815250509050878160000151141561113d57806080015161113c578673ffffffffffffffffffffffffffffffffffffffff168160a0015173ffffffffffffffffffffffffffffffffffffffff161461113b5760011515861515141561112d57600115158160c001511515141561112857600192508193505061114b565b61113a565b600192508193505061114b565b5b5b5b508080600101915050610fcc565b5081925050509392505050565b600a818154811061116557fe5b906000526020600020016000915090505481565b60026020528060005260406000206000915090505481565b600460003373ffffffffffffffffffffffffffffffffffffffff1673ffffffffffffffffffffffffffffffffffffffff16815260200190815260200160002060000160149054906101000a900460ff1615611254576040517f08c379a000000000000000000000000000000000000000000000000000000000815260040180806020018281038252600a8152602001807f557365722065786973740000000000000000000000000000000000000000000081525060200191505060405180910390fd5b60008111801561126657506007548111155b6112d8576040517f08c379a00000000000000000000000000000000000000000000000000000000081526004018080602001828103825260158152602001807f496e636f7272656374207265666572726572204964000000000000000000000081525060200191505060405180910390fd5b6002600060018152602001908152602001600020543414611361576040517f08c379a000000000000000000000000000000000000000000000000000000000815260040180806020018281038252600f8152602001807f496e636f72726563742056616c7565000000000000000000000000000000000081525060200191505060405180910390fd5b611369612250565b600460006006600085815260200190815260200160002060009054906101000a900473ffffffffffffffffffffffffffffffffffffffff1673ffffffffffffffffffffffffffffffffffffffff1673ffffffffffffffffffffffffffffffffffffffff1681526020019081526020016000206040518060e00160405290816000820160009054906101000a900473ffffffffffffffffffffffffffffffffffffffff1673ffffffffffffffffffffffffffffffffffffffff1673ffffffffffffffffffffffffffffffffffffffff1681526020016000820160149054906101000a900460ff161515151581526020016001820154815260200160028201548152602001600382015481526020016004820154815260200160058201548152505090508060200151156116135761149d6121f9565b6040518060e00160405280600181526020016002600060018152602001908152602001600020548152602001848152602001600281526020016000151581526020016006600086815260200190815260200160002060009054906101000a900473ffffffffffffffffffffffffffffffffffffffff1673ffffffffffffffffffffffffffffffffffffffff168152602001600015158152509050600860008154809291906001019190505550806005600060085481526020019081526020016000206000820151816000015560208201518160010155604082015181600201556060820151816003015560808201518160040160006101000a81548160ff02191690831515021790555060a08201518160040160016101000a81548173ffffffffffffffffffffffffffffffffffffffff021916908373ffffffffffffffffffffffffffffffffffffffff16021790555060c08201518160040160156101000a81548160ff021916908315150217905550905050505b61161b612250565b6007600081548092919060010191905055506040518060e001604052803373ffffffffffffffffffffffffffffffffffffffff168152602001600115158152602001600754815260200184815260200160008152602001600081526020016002806000600181526020019081526020016000205402815250905080600460003373ffffffffffffffffffffffffffffffffffffffff1673ffffffffffffffffffffffffffffffffffffffff16815260200190815260200160002060008201518160000160006101000a81548173ffffffffffffffffffffffffffffffffffffffff021916908373ffffffffffffffffffffffffffffffffffffffff16021790555060208201518160000160146101000a81548160ff02191690831515021790555060408201518160010155606082015181600201556080820151816003015560a0820151816004015560c082015181600501559050503360066000600754815260200190815260200160002060006101000a81548173ffffffffffffffffffffffffffffffffffffffff021916908373ffffffffffffffffffffffffffffffffffffffff1602179055506117cd6121f9565b6040518060e001604052806001815260200160026000600181526020019081526020016000205481526020016007548152602001600281526020016000151581526020013373ffffffffffffffffffffffffffffffffffffffff168152602001600015158152509050600860008154809291906001019190505550806005600060085481526020019081526020016000206000820151816000015560208201518160010155604082015181600201556060820151816003015560808201518160040160006101000a81548160ff02191690831515021790555060a08201518160040160016101000a81548173ffffffffffffffffffffffffffffffffffffffff021916908373ffffffffffffffffffffffffffffffffffffffff16021790555060c08201518160040160156101000a81548160ff02191690831515021790555090505061191b600133611b4f565b6006600085815260200190815260200160002060009054906101000a900473ffffffffffffffffffffffffffffffffffffffff1673ffffffffffffffffffffffffffffffffffffffff163373ffffffffffffffffffffffffffffffffffffffff167f7947c14edc15cafba4effc891bf1bd47b0e570c52d3728267603350c4422dd5b426040518082815260200191505060405180910390a350505050565b6000809054906101000a900473ffffffffffffffffffffffffffffffffffffffff1681565b60066020528060005260406000206000915054906101000a900473ffffffffffffffffffffffffffffffffffffffff1681565b60075481565b60046020528060005260406000206000915090508060000160009054906101000a900473ffffffffffffffffffffffffffffffffffffffff16908060000160149054906101000a900460ff16908060010154908060020154908060030154908060040154908060050154905087565b60056020528060005260406000206000915090508060000154908060010154908060020154908060030154908060040160009054906101000a900460ff16908060040160019054906101000a900473ffffffffffffffffffffffffffffffffffffffff16908060040160159054906101000a900460ff16905087565b60098181548110611b0f57fe5b906000526020600020016000915090505481565b600b5481565b600160009054906101000a900473ffffffffffffffffffffffffffffffffffffffff1681565b611b57612250565b6004600060066000600460008773ffffffffffffffffffffffffffffffffffffffff1673ffffffffffffffffffffffffffffffffffffffff16815260200190815260200160002060020154815260200190815260200160002060009054906101000a900473ffffffffffffffffffffffffffffffffffffffff1673ffffffffffffffffffffffffffffffffffffffff1673ffffffffffffffffffffffffffffffffffffffff1681526020019081526020016000206040518060e00160405290816000820160009054906101000a900473ffffffffffffffffffffffffffffffffffffffff1673ffffffffffffffffffffffffffffffffffffffff1673ffffffffffffffffffffffffffffffffffffffff1681526020016000820160149054906101000a900460ff16151515158152602001600182015481526020016002820154815260200160038201548152602001600482015481526020016005820154815250509050806020015115611d7057600a8381548110611cd257fe5b906000526020600020015460046000836000015173ffffffffffffffffffffffffffffffffffffffff1673ffffffffffffffffffffffffffffffffffffffff168152602001908152602001600020600401540160046000836000015173ffffffffffffffffffffffffffffffffffffffff1673ffffffffffffffffffffffffffffffffffffffff168152602001908152602001600020600401819055505b6000611d7e84336001610fbd565b90506000811415611d9857611d9584336000610fbd565b90505b611da06121f9565b600560008381526020019081526020016000206040518060e0016040529081600082015481526020016001820154815260200160028201548152602001600382015481526020016004820160009054906101000a900460ff161515151581526020016004820160019054906101000a900473ffffffffffffffffffffffffffffffffffffffff1673ffffffffffffffffffffffffffffffffffffffff1673ffffffffffffffffffffffffffffffffffffffff1681526020016004820160159054906101000a900460ff1615151515815250509050611e7c612250565b600460008360a0015173ffffffffffffffffffffffffffffffffffffffff1673ffffffffffffffffffffffffffffffffffffffff1681526020019081526020016000206040518060e00160405290816000820160009054906101000a900473ffffffffffffffffffffffffffffffffffffffff1673ffffffffffffffffffffffffffffffffffffffff1673ffffffffffffffffffffffffffffffffffffffff1681526020016000820160149054906101000a900460ff161515151581526020016001820154815260200160028201548152602001600382015481526020016004820154815260200160058201548152505090506000600560008581526020019081526020016000206003015490506001810360056000868152602001908152602001600020600301819055506000600182031415611fe45760016005600086815260200190815260200160002060040160006101000a81548160ff0219169083151502179055505b600360008881526020019081526020016000205460046000846000015173ffffffffffffffffffffffffffffffffffffffff1673ffffffffffffffffffffffffffffffffffffffff168152602001908152602001600020600301540160046000846000015173ffffffffffffffffffffffffffffffffffffffff1673ffffffffffffffffffffffffffffffffffffffff16815260200190815260200160002060030181905550600260008881526020019081526020016000205460046000846000015173ffffffffffffffffffffffffffffffffffffffff1673ffffffffffffffffffffffffffffffffffffffff168152602001908152602001600020600501540360046000846000015173ffffffffffffffffffffffffffffffffffffffff1673ffffffffffffffffffffffffffffffffffffffff1681526020019081526020016000206005018190555060046000836000015173ffffffffffffffffffffffffffffffffffffffff1673ffffffffffffffffffffffffffffffffffffffff16815260200190815260200160002060000160009054906101000a900473ffffffffffffffffffffffffffffffffffffffff1673ffffffffffffffffffffffffffffffffffffffff166108fc600360008a8152602001908152602001600020549081150290604051600060405180830381858888f193505050501580156121ef573d6000803e3d6000fd5b5050505050505050565b6040518060e0016040528060008152602001600081526020016000815260200160008152602001600015158152602001600073ffffffffffffffffffffffffffffffffffffffff1681526020016000151581525090565b6040518060e00160405280600073ffffffffffffffffffffffffffffffffffffffff1681526020016000151581526020016000815260200160008152602001600081526020016000815260200160008152509056fea265627a7a72315820e59beb940ef6c66d8eef996851b89a4ce765023b7c18899b3333ce49ed3bfca564736f6c63430005100032",
  "source": "pragma solidity >=0.4.23 <0.6.0;\r\n\r\ncontract RubyCash {\r\n    address public ownerWallet;\r\n    address public feeWallet;\r\n    struct PackageStruct {\r\n        uint level;\r\n        uint amount;\r\n        uint userID;\r\n        uint remSlot;\r\n        bool isFulfiled;\r\n        address wallet;\r\n        bool swirled;\r\n    }\r\n\r\n    struct UserStruct {\r\n        address wallet;\r\n        bool isExist;\r\n        uint id;\r\n        uint referrerID;\r\n        uint totEarned;\r\n        uint bonusEarned;\r\n        uint balance;\r\n    }\r\n\r\n    mapping(uint => uint) public PACKAGE_PRICE;\r\n    mapping(uint => uint) public PAYOUT;\r\n    mapping(address => UserStruct) public users;\r\n    mapping(uint => PackageStruct) public packages;\r\n    mapping(uint => address) public userList;\r\n    uint public currUserID = 0;\r\n    uint public packageID = 0;\r\n    uint[] public FEE = [0.0005 ether, 0.005 ether, 0.05 ether, 0.5 ether, 5 ether];\r\n    uint[] public REF_FEE = [0.0003 ether, 0.003 ether, 0.03 ether, 0.3 ether, 3 ether];\r\n    uint public increment;\r\n\r\n    event regEvent(address indexed _user, address indexed _referrer, uint _time);\r\n    event buyPackageEvent(address indexed _user, uint _level, uint _time);\r\n    event receivedEtherEvent(address indexed _sender, uint _amount);\r\n\r\n    constructor(address _feeWallet) public {\r\n        ownerWallet = msg.sender;\r\n        feeWallet = _feeWallet;\r\n\r\n        PACKAGE_PRICE[1] = 0.01 ether;\r\n        PACKAGE_PRICE[2] = 0.1 ether;\r\n        PACKAGE_PRICE[3] = 1 ether;\r\n        PACKAGE_PRICE[4] = 10 ether;\r\n        PACKAGE_PRICE[5] = 100 ether;\r\n\r\n        PAYOUT[1] = 0.009 ether;\r\n        PAYOUT[2] =  0.09 ether;\r\n        PAYOUT[3] = 0.9 ether;\r\n        PAYOUT[4] =  9 ether;\r\n        PAYOUT[5] =  90 ether;\r\n        //PackageStruct[] memory emptyPackageList;\r\n        UserStruct memory userStruct;\r\n        currUserID++;\r\n        userStruct = UserStruct({\r\n            wallet: msg.sender,\r\n            isExist: true,\r\n            id: currUserID,\r\n            referrerID: 0,\r\n            totEarned: 0,\r\n            bonusEarned: 0,\r\n            balance: 0\r\n        });\r\n        users[ownerWallet] = userStruct;\r\n        userList[currUserID] = ownerWallet;\r\n\r\n        for(uint i = 1; i <= 5; i++) {\r\n            PackageStruct memory new_package;\r\n            new_package  = PackageStruct({\r\n                    level: i,\r\n                    amount: PACKAGE_PRICE[i],\r\n                    userID: currUserID,\r\n                    isFulfiled: false,\r\n                    remSlot: 2,\r\n                    wallet: msg.sender,\r\n                    swirled: true\r\n            });\r\n            packageID++;\r\n            packages[packageID] = new_package;\r\n            users[ownerWallet].balance = users[ownerWallet].balance + (PACKAGE_PRICE[i] * 2);\r\n        }\r\n    }\r\n\r\n    function () external payable {\r\n        emit receivedEtherEvent(msg.sender, msg.value);\r\n    }\r\n\r\n    function regUser(uint _referrerID) public payable {\r\n        require(!users[msg.sender].isExist, 'User exist');\r\n        require(_referrerID > 0 && _referrerID <= currUserID, 'Incorrect referrer Id');\r\n        require(msg.value == PACKAGE_PRICE[1], 'Incorrect Value');\r\n\r\n        UserStruct memory _referrer = users[userList[_referrerID]];\r\n        if(_referrer.isExist){\r\n            //give referral a bonus package\r\n            PackageStruct memory new_package;\r\n            new_package = PackageStruct({\r\n                    level: 1,\r\n                    amount: PACKAGE_PRICE[1],\r\n                    userID: _referrerID,\r\n                    isFulfiled: false,\r\n                    remSlot: 2,\r\n                    wallet: userList[_referrerID],\r\n                    swirled: false\r\n            });\r\n            packageID++;\r\n            packages[packageID] = new_package;\r\n        }\r\n        \r\n        UserStruct memory userStruct;\r\n        currUserID++;\r\n        userStruct = UserStruct({\r\n            wallet: msg.sender,\r\n            isExist: true,\r\n            id: currUserID,\r\n            referrerID: _referrerID,\r\n            totEarned: 0,\r\n            bonusEarned: 0,\r\n            balance: (PACKAGE_PRICE[1] * 2)\r\n        });\r\n\r\n        users[msg.sender] = userStruct;\r\n        userList[currUserID] = msg.sender;\r\n\r\n        //give slot to user\r\n        PackageStruct memory new_package;\r\n        new_package = PackageStruct({\r\n                level: 1,\r\n                amount: PACKAGE_PRICE[1],\r\n                userID: currUserID,\r\n                isFulfiled: false,\r\n                remSlot: 2,\r\n                wallet: msg.sender,\r\n                swirled: false\r\n        });\r\n        packageID++;\r\n        packages[packageID] = new_package;\r\n\r\n        payForPackage(1, msg.sender);\r\n        emit regEvent(msg.sender, userList[_referrerID], now);\r\n    }\r\n\r\n    function isUserExist(address _user) public view returns(bool)\r\n    {\r\n        return users[_user].isExist ==  true ? true: false;\r\n    }\r\n    \r\n    function buyNewPackage(uint _level) public payable {\r\n        require(users[msg.sender].isExist, 'User not exist'); \r\n        require(_level > 0 && _level <= 5, 'Incorrect level');\r\n        require(msg.value == PACKAGE_PRICE[_level], 'Incorrect Value');\r\n        payForPackage(_level, msg.sender);\r\n        packageID++;\r\n        packages[packageID] = PackageStruct({\r\n                    level: _level,\r\n                    amount: PACKAGE_PRICE[_level],\r\n                    userID: users[msg.sender].id,\r\n                    isFulfiled: false,\r\n                    remSlot: 2,\r\n                    wallet: msg.sender,\r\n                    swirled: false\r\n        });\r\n        users[msg.sender].balance = users[msg.sender].balance + (PACKAGE_PRICE[_level] * 2);\r\n        emit buyPackageEvent(msg.sender, _level, now);\r\n    }\r\n\r\n    function payForPackage(uint _level, address _user) internal {\r\n        UserStruct memory referer;\r\n        referer = users[userList[users[_user].referrerID]];\r\n \r\n        if(referer.isExist){\r\n            users[referer.wallet].bonusEarned = users[referer.wallet].bonusEarned + REF_FEE[_level];\r\n            //require(address(uint160(referer.wallet)).transfer(REF_FEE[_level]),'Unable to pay referral');\r\n        }\r\n        //transfer fee\r\n        //require(address(uint160(feeWallet)).send(FEE[_level]),'Unable to pay fee');\r\n        //find a user with free package\r\n        uint index = findNextEarner(_level,msg.sender,true);\r\n        if(index == 0){\r\n            index = findNextEarner(_level,msg.sender,false);\r\n        }\r\n        PackageStruct memory thePackage = packages[index];\r\n        UserStruct memory nextEarner = users[thePackage.wallet];\r\n        uint remSlot = packages[index].remSlot;\r\n        packages[index].remSlot = remSlot - 1;\r\n        if((remSlot - 1) == 0 ){\r\n            packages[index].isFulfiled = true;\r\n        } \r\n        users[nextEarner.wallet].totEarned = users[nextEarner.wallet].totEarned + PAYOUT[_level]; \r\n        users[nextEarner.wallet].balance = users[nextEarner.wallet].balance - PACKAGE_PRICE[_level]; \r\n        /*(bool sent, bytes memory transactionBytes) = address(uint160(users[nextEarner.wallet].wallet)).call{value:PAYOUT[_level]}('');\r\n        require(sent,'Transfer failed');*/\r\n        //bool sent = address(uint160(users[nextEarner.wallet].wallet)).send(PAYOUT[_level]);\r\n        /*if(sent != true){\r\n            address(uint160(users[nextEarner.wallet].wallet)).transfer(PYOUT[_level]);\r\n        }*/\r\n        address(uint160(users[nextEarner.wallet].wallet)).transfer(PAYOUT[_level]);\r\n        return;\r\n    }\r\n\r\n    function findNextEarner(uint _level, address _caller, bool _swirled) public view  returns(uint) {\r\n        uint nextEarner; \r\n        bool userFound = false;\r\n        for(uint i = 1; i<= packageID; i++){\r\n            PackageStruct memory currPackage = packages[i];\r\n            if(currPackage.level == _level){\r\n                if(!currPackage.isFulfiled){\r\n                    if(currPackage.wallet != _caller){\r\n                        if(_swirled == true)\r\n                        {\r\n                            if(currPackage.swirled == true)\r\n                            {\r\n                                userFound = true;\r\n                                nextEarner = i;\r\n                                break;\r\n                            }\r\n                        }else{\r\n                            userFound = true;\r\n                            nextEarner = i;\r\n                            break;\r\n                        }\r\n                            \r\n                        \r\n                    }\r\n                }\r\n            }\r\n        }\r\n        //require(userFound != false, 'No Earner Found');\r\n        return nextEarner;\r\n    }\r\n\r\n    function swirl(uint _userID, uint _level ) public payable {\r\n        require(msg.sender == ownerWallet, 'Only owner can call function');\r\n        require(_userID > 0 && _userID <= currUserID, 'No user found');\r\n        PackageStruct memory new_package;\r\n            new_package  = PackageStruct({\r\n                    level: _level,\r\n                    amount: PACKAGE_PRICE[_level],\r\n                    userID: _userID,\r\n                    isFulfiled: false,\r\n                    remSlot: 2,\r\n                    wallet: userList[_userID],\r\n                    swirled: true\r\n            });\r\n        packageID++;\r\n        packages[packageID] = new_package;\r\n        users[userList[_userID]].balance = users[userList[_userID]].balance + (PACKAGE_PRICE[_level] * 2);\r\n        }\r\n    \r\n}",
  "sourcePath": "C:/Bitnami/wampstack-7.3.13-0/apache2/htdocs/rubycash/contract/contracts/RubyCash.sol",
  "compiler": {
    "name": "solc",
    "version": "0.5.16+commit.9c3226ce.Emscripten.clang"
  },
  "schemaVersion": "3.3.2",
  "updatedAt": "2021-08-09T09:48:07.414Z",
  "networkType": "ethereum",
  "devdoc": {
    "methods": {}
  },
  "userdoc": {
    "methods": {}
  }
}